:060000000A128A110C280F
:10000800FE00030EF1000A08F2000A128A11922C6F
:100018000A128A110F28F801F901FA018312031351
:10002800C601C701C801C901CA01CB01CC01CD0174
:10003800CE01CF01D001D101D20183010A128A1168
:100048000F2983120313B8002A30B0003008B30018
:10005800F828253039060319322833283F2839086B
:10006800B000380884003008831380000130B000E5
:100078003008B807F828B4010130A907FF3029076C
:1000880084000A128A110A240A128A11B900B000DF
:10009800B1013108003A03195228F8283008003A0B
:1000A80003190A29643A03195D280D3A03195D28D2
:1000B800F8283308840083130008B600840A00086F
:1000C800B7000230B0003008B307B71F6C286D289E
:1000D80076280330B0003008B404B609B709B60A68
:1000E8000319B70AB901B90A3908B0003007013E47
:1000F80084000A128A110A240A128A11B1000A120B
:100108008A110A240A128A11B20032083702031D22
:100118008F283108360203189228932894289E289D
:100128000130B0003008B90705303906031D9D2895
:100138009E287828340803390319A328A428AF284F
:100148002D30B00038088400300883138000013057
:10015800B0003008B8073908B0003008B500EF28FB
:100168000A30A3000030A4003508B0003007013E73
:1001780084000A128A110A240A128A11F3000A1248
:100188008A110A240A128A11F4003708F600360880
:10019800F5000A128A11F6220A128A1174088312CB
:1001A8000313A6007308A5000A128A1182230A12F3
:1001B8008A11831203132308303EB1003108B900B5
:1001C8003908B000380884003008831380000130F3
:1001D800B0003008B807FF30B0003008B507350A5E
:1001E800031DF728F828B4280130A907FF3029078C
:1001F80084000A128A110A240A128A11B0003008EF
:10020800B9003908031D09290A292D28380884004E
:100218008313800108000A128A11BB240A128A116A
:10022800831203139F14831203139F181C291D297B
:1002380050293E29C3309F050F3083120313C40091
:10024800C40B2429272983120313CB01CB0A4E2977
:100258001F08C33904389F000F3083120313C400EA
:10026800C40B3429372983120313CB014E29C33019
:100278009F0520294B08C400C5014508003A031909
:1002880046293B294408003A03191E29013A031953
:100298002C293B299F140C13F601F60A02300A1286
:1002A8008A1134240A128A11831203134D080A1280
:1002B8008A1157220A128A114E30F6000030F700D0
:1002C8000A128A113C230A128A112230F600803061
:1002D800F7000A128A113C230A128A1183120313A7
:1002E8004C080A128A1157220A128A114E30F60057
:1002F8000030F7000A128A113C230A128A112230B0
:10030800F6008030F7000A128A113C230A128A117B
:1003180017290A128A110C2883120313A701A31F95
:10032800962997299E29A209A309A20A0319A30AB3
:10033800A701A70AA51FA129A229AB29A409A509D4
:10034800A40A0319A50A0130F7007708A706A8012F
:10035800A901220823040319B229B329EA29A6010D
:10036800A60AC12901300310A20DA30DFF3E031DEB
:10037800B7290130F7007708A607A31FC429C529A4
:10038800B62901300310A80DA90DFF3E031DC6298B
:1003980023082502031DD22922082402031CD5297B
:1003A800D629DD292208A4022308031CA503A502D7
:1003B800281401300310A30CA20CFF3E031DDE29F4
:1003C8000130A602031DE929EA29C52927080319CE
:1003D800EE29EF29F429A809A909A80A0319A90AE5
:1003E8002908A3002808A20008006430F3000030A0
:1003F800F400831203132A08F6002908F5000A12EC
:100408008A11F6220A128A11730883120313AB00A9
:100418002B08CA000A30F3000030F4002A08A600AE
:100428002908A5006430A3000030A4000A128A112C
:1004380082230A128A11831203132408F600230860
:10044800F5000A128A11F6220A128A117308831219
:100458000313AB002B08C9002A08A6002908A50029
:100468006430A3000030A4000A128A1182230A1201
:100478008A11831203132408AD002308AC000A3044
:10048800A3000030A4002D08A6002C08A5000A121D
:100498008A1182230A128A11831203132308AB00DC
:1004A8002B08C800080083120313C1003330A200D0
:1004B8000030A3004108BA00BB013A08F3003B082A
:1004C800F4006430F5000030F6000A128A1167243F
:1004D8000A128A11740883120313A5007308A40072
:1004E8000A128A1190210A128A118312031323080F
:1004F800C3002208C2004308AA004208A9000A1241
:100508008A11F9210A128A111A3083120313BA00C8
:100518003A08A9004A08BB00BC013B08AA003C08ED
:10052800AB004908BD00BE013D08AC003E08AD0067
:100538004808BF00C0013F08AE004008AF004E3079
:100548000A128A1125200A128A110800831203133D
:100558008711071188011A30F700F830F600F60BFA
:10056800B32AF70BB32A000030300A128A11442547
:100578000A128A110730F7007D30F600F60BC22AFE
:10058800F70BC22A30300A128A1144250A128A113E
:100598004230F600F60BCE2A000030300A128A11DB
:1005A80044250A128A113C300A128A1144250A127B
:1005B8008A110C300A128A1144250A128A11103045
:1005C8000A128A1144250A128A1101300A128A1164
:1005D80044250A128A1106300A128A1144250A1281
:1005E8008A11080083120313A101A201730874047D
:1005F8000319FF2A002B372BA001A00A0E2B01306C
:100608000310F30DF40DFF3E031D042B0130F7001A
:100618007708A007F41F112B122B032B01300310AE
:10062800A10DA20DFF3E031D132B74087602031DB6
:100638001F2B73087502031C222B232B2A2B7308EC
:10064800F5027408031CF603F602211401300310A6
:10065800F40CF30CFF3E031D2B2B0130A002031DED
:10066800362B372B122B2208F4002108F300080040
:1006780083120313A301A401652B23087607A100A5
:100688007708A0000318A00AA31F4B2BA00383120E
:1006980003132008A2002208FF00210884000A1280
:1006A8008A1100240A128A110A128A1118250A12BC
:1006B8008A11013083120313A3070318A40A003018
:1006C800A40723087607A1007708A0000318A00A4A
:1006D800A31F6F2BA003831203132008A200220874
:1006E800FF00210884000A128A1100240A128A11C4
:1006F800003A031D802B812B412B08008312031322
:10070800230824040319892B8A2BB92BA801A80ACA
:10071800982B01300310A30DA40DFF3E031D8E2B53
:100728000130A7002708A807A41F9B2B9C2B8D2B03
:1007380024082602031DA22B23082502031CA52B2F
:10074800A62BAC2B2308A5022408031CA603A6028B
:1007580001300310A40CA30CFF3E031DAD2B013088
:10076800A802031DB82BB92B9C2B2608A40025082A
:10077800A3000800F3007303031DC32BC42BCE2B67
:10078800831603139F131F129F123F308312031304
:100798009F051F1402307306031DD32BD42BE02BA7
:1007A800831603139F131F129F12831203131F082C
:1007B8003F3940389F001F1403307306031DE52B93
:1007C800E62BF22B831603139F131F129F1283121B
:0E07D80003131F083F3980389F001F140800CC
:10080000FF1B0A2C83137F1883170008840A03191F
:10081000FF0A080004308A000408840A82070034B2
:10082000013400340A34003464340034E8340334CE
:1008300010342734533431343A34203420342034C3
:10084000533432343A3420342034533433343A3449
:100850000034253464342E3425346434253464342F
:100860000034563420340034F700542C76080F3905
:10087000FF3E80380A128A1144250A128A11662C1A
:1008800076080F39FF3EC0380A128A1144250A1231
:100890008A11662C76080F39FF3E80380A128A11B9
:1008A00044250A128A11662C770883120313A000CC
:1008B000A1012108003A03195E2C4A2C2008013AB4
:1008C0000319362C033A0319402C4A2C08008312D2
:1008D0000313A001A101731C6E2C6F2C772C7508DB
:1008E00083120313A0070318A10A7608A107013099
:1008F0000310F50DF60DFF3E031D782C013003109B
:10090000F40CF30CFF3E031D7F2C73087404031DCD
:100910008A2C8B2C6B2C831203132108F4002008E3
:10092000F3000800831203130C1C972C982C9D2CA9
:100930000C10F8308F0030308E000C1FA02CA12C32
:10094000B42C1F0CF000700C0F39003A031DA92CB9
:10095000AA2CAF2C1E08F0007008CD00B32C1E0886
:10096000F0007008CC000C1372088A00710E83002E
:10097000FE0E7E0E09000A128A11F1240A128A1153
:100980000A128A1150250A128A110A128A11362572
:100990000A128A110A128A1158250A128A110A1299
:1009A0008A1106250A128A110A128A11DA240A12F9
:1009B0008A1108000A128A11AA220A128A11F60163
:1009C000F60A01300A128A1134240A128A110B30F5
:1009D000F6008030F7000A128A113C230A128A11AD
:1009E00008008316031788010814881489018316E8
:1009F000031385010514851486018701880183127C
:100A000003138501860187018801080002300A125C
:100A10008A11BE230A128A11831203131F08C339D5
:100A200034389F001030F400F40B142D000008003F
:100A3000F500831203130715750888000A128A113E
:100A400027250A128A118312031307110800831243
:100A5000031387150730F4007D30F300F30B2E2DC0
:100A6000F40B2E2D83120313871108008312031336
:100A7000901210129011101590101014F8308F0071
:100A800030308E000C100800F5008312031307119C
:100A9000750888000A128A1127250A128A1108008F
:100AA000831603130F088F3960388F000F14080066
:0E0AB0008B170B17831603130C140C1708007A
:04400E00D420FF3F7C
:00000001FF
