:060000000A128A110E280D
:10000800FE00030EF7000408F8000A08F9000A12B7
:100018008A11E7280A128A111128F001F101F20168
:10002800F301F40183120313AE0183010A128A114A
:100038003A2983120313A601A11F232824282B2859
:10004800A009A109A00A0319A10AA601A60AA31FCB
:100058002E282F283828A209A309A20A0319A30ABF
:100068000130A4002408A606A701A801200821043D
:1000780003193F2840287728A501A50A4E280130F2
:100088000310A00DA10DFF3E031D44280130A4005C
:100098002408A507A11F512852284328013003101E
:1000A800A70DA80DFF3E031D532821082302031D99
:1000B8005F2820082202031C622863286A28200877
:1000C800A2022108031CA303A30227140130031072
:1000D800A10CA00CFF3E031D6B280130A502031DD7
:1000E800762877285228260803197B287C28812817
:1000F800A709A809A70A0319A80A2808A100270818
:10010800A000080083120313A200AC283F30E628A1
:100118000630E6285B30E6284F30E6286630E628C9
:100128006D30E6287D30E6280730E6287F30E6285F
:100138006730E6287730E6287C30E6283930E6282C
:100148005E30E6287930E6287130E6285530E62812
:100158002208A000A1012108003A0319B428AA28FE
:100168002008003A03198A28013A03198C28033A0F
:1001780003198E28013A03199028073A031992287F
:10018800013A03199428033A03199628013A0319E6
:1001980098280F3A03199A28013A03199C28033A18
:1001A80003199E28013A0319A028073A0319A2281F
:1001B800013A0319A428033A0319A628013A031996
:1001C800A828AA280800831203130C1CEC28ED2881
:1001D800152900298810081470088700F401F40A0A
:1001E8001029881408102E088700F4011029881493
:1001F8000814FF308700F2287408F500F601760825
:10020800003A03190829FB287508003A0319EE2853
:10021800013A0319F528FB280C10F8308F0030300C
:100228008E000C1F182919291E291E08F5007508AB
:10023800F1000C130B1C2129222931290618252924
:1002480026292A290130F5007508850786182D29E1
:100258002E293029013085020B1079088A00780888
:100268008400770E8300FE0E7E0E09000A128A11A2
:10027800AE210A128A11831203139F14F4019F18E6
:100288004629472949299F140C13710805020318A8
:100298004E294F295029081571080502031C5529B4
:1002A80056295729081171080A128A11D2210A12EF
:1002B8008A1173080A128A1186200A128A11831277
:1002C8000313AD002D08F00072080A128A11862067
:1002D8000A128A1183120313AD002D08AE004329B8
:1002E8000A128A110E2883120313A0002003031D8B
:1002F8007E297F298929831603139F131F129F12B2
:100308003F30831203139F051F1402302006031D7C
:100318008E298F299B29831603139F131F129F125F
:10032800831203131F083F3940389F001F140330FE
:100338002006031DA029A129AD29831603139F13A5
:100348001F129F12831203131F083F3980389F0022
:100358001F1408000A128A11F1210A128A110A12BE
:100368008A112F220A128A110A128A1119220A12D4
:100378008A110A128A1127220A128A110A128A116C
:1003880005220A128A110A128A113D220A128A11BA
:100398000A128A1137220A128A11080083120313DB
:1003A800AC001030A0000030A1002C08A900AA0160
:1003B8002908A2002A08A3000A128A111D200A127D
:1003C8008A11831203132008AB002B08F3002C08B2
:1003D8000F39A9002908F2000800831603178801BD
:1003E800890189168316031385010730860086164E
:1003F800870188018312031385018601870188011B
:10040800080002300A128A1177210A128A1183120F
:1004180003131F08C33934389F000F3083120313A6
:10042800A100A10B152A182A0800831203139012A1
:1004380010129011101590101014F8308F003030F1
:100448008E000C1008008B170B17831603130C145F
:100458000C178B150800831603130F088F396038A3
:100468008F000F14080083160313811315149514B5
:0E047800080083160313161496140B100800C8
:04400E00D420FF3F7C
:00000001FF
