:060000000A128A110C280F
:10000800FE00030EF2000A08F3000A128A111528EE
:100018000A128A110F28F801F90183010A128A11BC
:100028009128831203138C1D1A281B282E280A12C4
:100038008A119E200A128A11F1007108F9008312B0
:10004800031308080A128A11C9200A128A11831296
:1000580003138C110B1C312832284128861B3528A4
:1000680036283A280130F1007108F807861A3D2829
:100078003E2840280130F8020B1073088A00720EDF
:100088008300FE0E7E0E09000A128A1183200A12CE
:100098008A110A128A11A7200A128A110A128A11D1
:1000A800AF200A128A110A128A11C3200A128A1171
:1000B8000A128A11BD200A128A11F401F501F6010B
:1000C80024300A128A116B200A128A110800F700DC
:1000D800831603138712771D7228732878287608E9
:1000E8009400871585167C28740876049400871177
:1000F8000716770875048312031394000800831603
:10010800031788018901A03083160313860088012C
:10011800831203138601880108000A128A114820F5
:100128000A128A11780883120313880096280A1283
:100138008A110C280A128A11B6200A128A1183120F
:10014800031313080800831603130F088F39603848
:100158008F000F1408008B170B178B1583160313CA
:100168008C15080083160313141CBB28BC28B6285A
:100178000800831603138113951695170800831634
:100188000313961696170B100800F00070088312D8
:06019800031393000800B0
:04400E00D420FF3F7C
:00000001FF
