:060000000A128A11122809
:10000800FE00030E83120313B8000408B9000A089F
:10001800BA007F08BB000A128A15162F0A128A1125
:10002800152883134430840054300A128A15A626F2
:100038000A128A11A0308400CD300A128A15A62629
:100048000A128A1183010A128A15032F5230831665
:100058000313E400640883120313C30044080A125C
:100068008A1157270A128A11831203135308831619
:100078000313D40083120313520883160313D30007
:100088004F30E4006408D5005030E5006508D6001C
:100098005130E6006608D7000A128A119C240A1219
:1000A8008A113E3083160313E4006408D3008312D8
:1000B80003134F0883160313E500E6016508D4000F
:1000C8006608D50083120313500883160313E7004C
:1000D800E8016708D6006808D7008312031351089F
:1000E80083160313E900EA016908D8006A08D900F1
:1000F800A0300A128A115C210A128A118312031392
:10010800BF01BF0A02300A128A11CC270A128A11CB
:10011800A03083120313BF000030C0000A128A11F6
:100128003D260A128A118312031345088316031306
:10013800E400E5016408D3006508D4004C30E6000B
:100148006608D5004D30E7006708D6004E30E80055
:100158006808D7000A128A119C240A128A114730AB
:1001680083160313E4006408D300831203134C08B6
:1001780083160313E500E6016508D4006608D50078
:10018800831203134D0883160313E700E801670879
:10019800D6006808D700831203134E08831603138A
:1001A800E900EA016908D8006A08D900A5300A12EE
:1001B8008A115C210A128A11073083160313E4009E
:1001C800640883120313BF0002300A128A11CC2775
:1001D8000A128A11A53083120313BF000030C00031
:1001E8000A128A113D260A128A118312031346083D
:1001F80083160313E400E5016408D3006508D400FE
:100208004930E6006608D5004A30E7006708D6009E
:100218004B30E8006808D7000A128A119C240A1299
:100228008A11473083160313E4006408D30083124D
:100238000313490883160313E500E6016508D40093
:100248006608D500831203134A0883160313E700D0
:10025800E8016708D6006808D700831203134B0823
:1002680083160313E900EA016908D8006A08D9006F
:10027800AA300A128A115C210A128A110B308316DD
:100288000313E400640883120313BF0002300A1248
:100298008A11CC270A128A11AA3083120313BF00CD
:1002A8000030C0000A128A113D260A128A1108007D
:1002B80083160313E200D430DA005A08DD003F2A1F
:1002C80025306306031969296A2976296308DA0043
:1002D800620884005A08831380000130DA005A0843
:1002E800E2073F2ADE010130D307FF3053078400BD
:1002F8000A128A1194250A128A11E300DA00DB0136
:100308005B08003A031989293F2A5A08003A031959
:10031800512A643A031994290D3A031994293F2A5A
:100328005D08840083130008E000840A0008E100E7
:100338000230DA005A08DD07E11FA329A429AD29F4
:100348000330DA005A08DE04E009E109E00A03197B
:10035800E10AE301E30A6308DA005A07013E840070
:100368000A128A1194250A128A11DB000A128A11CC
:1003780094250A128A11DC005C086102031DC62953
:100388005B0860020318C929CA29CB29D52901307D
:10039800DA005A08E30705306306031DD429D52976
:1003A800AF295E0803390319DA29DB29E6292D303C
:1003B800DA00620884005A08831380000130DA00EA
:1003C8005A08E2076308DA005A08DF00362A0A30BA
:1003D800CD000030CE005F08DA005A07013E8400E5
:1003E8000A128A1194250A128A1183120313BC0077
:1003F8000A128A1194250A128A11BD008316031362
:10040800610883120313BF00831603136008831265
:100418000313BE000A128A1191260A128A11831246
:1004280003133D0883160313D000831203133C08FB
:1004380083160313CF000A128A111B270A128A1186
:10044800831603134D08303EDB005B08E3006308A6
:10045800DA00620884005A08831380000130DA0049
:100468005A08E207FF30DA005A08DF075F0A031D5F
:100478003E2A3F2AEB290130D307FF305307840077
:100488000A128A1194250A128A11DA005A08E3001E
:100498006308031D502A512A6429620884008313C3
:1004A8008001080083120313AF002130A70027083A
:1004B800AA00272B253030060319632A642A702ADC
:1004C8003008A7002F088400270883138000013014
:1004D800A7002708AF07272BAB010130A007FF3083
:1004E800200784000A128A1194250A128A11B00082
:1004F800A700A8012808003A0319832A272B2708F0
:10050800003A0319392B643A03198E2A0D3A031954
:100518008E2A272B2A08840083130008AD00840A3A
:100528000008AE000230A7002708AA07AE1F9D2AC0
:100538009E2AA72A0330A7002708AB04AD09AE09F5
:10054800AD0A0319AE0AB001B00A3008A7002707A0
:10055800013E84000A128A1194250A128A11A80001
:100568000A128A1194250A128A11A90029082E0252
:10057800031DC02A28082D020318C32AC42AC52A25
:10058800CF2A0130A7002708B00705303006031D21
:10059800CE2ACF2AA92A2B0803390319D42AD52A07
:1005A800E02A2D30A7002F08840027088313800035
:1005B8000130A7002708AF073008A7002708AC00BC
:1005C8001E2B0A30F8000030F9002C08A700270776
:1005D800013E84000A128A1194250A128A11F00039
:1005E8000A128A1194250A128A11F1002E08F300C2
:1005F8002D08F2000A128A11D7260A128A117108E8
:10060800FB007008FA000A128A1192270A128A114E
:100618007808303E83120313A8002808B000300879
:10062800A7002F0884002708831380000130A70043
:100638002708AF07FF30A7002708AC072C0A031DBF
:10064800262B272BE52A0130A007FF30200784003E
:100658000A128A1194250A128A11A7002708B000E5
:100668003008031D382B392B5E2A2F08840083138A
:1006780080010800F42B061206178616C73083126D
:100688000313BD00472BBD0B462B4A2B00300A1223
:100698008A158B260A128A110A128A15AE260A12A0
:1006A8008A1183120313BD003D08C400C7308312AA
:1006B8000313BD005F2BBD0B5E2B622B831203134C
:1006C8000616413083120313BE00ED30BD00BD0B8A
:1006D8006B2BBE0B6B2B702B83120313C701C70A3E
:1006E800092C061606138616C73083120313BD009D
:1006F8007D2BBD0B7C2B802B00300A128A158B2694
:100708000A128A110A128A15AE260A128A1183124F
:100718000313BD003D08C500C73083120313BD0095
:10072800952BBD0B942B982B83120313061741307E
:1007380083120313BE00ED30BD00BD0BA12BBE0B11
:10074800A12BA62B023083120313BD003D08C7005E
:10075800092C061606178612C73083120313BD002C
:10076800B52BBD0BB42BB82B00300A128A158B267B
:100778000A128A110A128A15AE260A128A118312DF
:100788000313BD003D08C600C73083120313BD0024
:10079800CD2BBD0BCC2BD02B8312031386124130EB
:1007A80083120313BE00ED30BD00BD0BD92BBE0B69
:1007B800D92BDE2B83120313C701092C0616061743
:1007C8008616C73083120313BD00EA2BBD0BE92B35
:1007D800ED2B00300A128A158B260A128A11502B2B
:1007E800831203134708BD00BE013E08003A0319EF
:1007F800FE2BE22B3D08003A03193F2B013A03195F
:10080800752B033A0319AD2BE22B08002A3083120B
:100818000313B1003108A0004F08B200B301320839
:10082800A1003308A2005008B400B5013408A300A1
:100838003508A4005108B600B7013608A5003708E6
:10084800A600AF300A128A1156220A128A113530D0
:1008580083120313B1003108A0004C08B200B301A1
:100868003208A1003308A2004D08B400B5013408CD
:10087800A3003508A4004E08B600B7013608A50045
:100888003708A600B9300A128A1156220A128A11AC
:10089800473083120313B1003108A0004908B200A1
:1008A800B3013208A1003308A2004A08B400B50118
:1008B8003408A3003508A4004B08B600B701360871
:1008C800A5003708A600C3300A128A1156220A1258
:1008D8008A110B30F0008030F1000A128A15AE2719
:1008E8000A128A110A128A1586260A128A11AF304C
:1008F800F0000030F1000A128A15AE270A128A1198
:10090800B930F0000030F1000A128A15AE270A1239
:100918008A11C330F0000030F1000A128A15AE27A0
:100928000A128A110A128A1586260A128A110800E2
:10093800643083120313BC000030BD008316031318
:10094800540883120313BF0083160313530883123A
:100958000313BE000A128A1191260A128A11831201
:1009680003133C0883160313D8005508840058085D
:10097800831380000A3083120313BC000030BD00CB
:10098800831603135408D0005308CF006430CD00F9
:100998000030CE000A128A111B270A128A11831608
:1009A80003134E0883120313BF00831603134D0865
:1009B80083120313BE000A128A1191260A128A11A1
:1009C800831203133C0883160313D80056088400C7
:1009D8005808831380005408D0005308CF006430AF
:1009E800CD000030CE000A128A111B270A128A1184
:1009F800831603134E08DA004D08D9000A30CD00DB
:100A08000030CE005A08D0005908CF000A128A11C7
:100A18001B270A128A11831603134D08D80057089A
:100A28008400580883138000080083160313D2013A
:100A3800CE1F1F2D202D272DCD09CE09CD0A031934
:100A4800CE0AD201D20AD01F2A2D2B2D382DCF093C
:100A5800D009CF0A0319D00A013083120313C20048
:100A6800420883160313D206D301D4014D084E045D
:100A780003193F2D402D7B2DD101D10A522D013074
:100A88000310CD0DCE0DFF3E031D442D0130831202
:100A98000313C200420883160313D107CE1F552D36
:100AA800562D432D01300310D30DD40DFF3E031DE9
:100AB800572D4E085002031D632D4D084F02031C8D
:100AC800662D672D6E2D4D08CF024E08031CD003EE
:100AD800D002531401300310CE0CCD0CFF3E031D81
:100AE8006F2D0130D102031D7A2D7B2D562D520812
:100AF80003197F2D802D852DD309D409D30A031915
:100B0800D40A5408CE005308CD000800FF1B942DCA
:100B180083137F1883170008840A0319FF0A080043
:100B280005308A000408840A82070034013400343E
:100B38000A34003464340034E8340334103427347D
:100B48002034533431343A3420342034203453346C
:100B580032343A3420342034533433343A34003481
:100B68002034533431343A3420342034533432343A
:100B78003A3420342034533433343A34003425346E
:100B880064342E34253464342534643456342034A3
:100B980020340034253464342534643425346434F2
:100BA800203420340034253464342E34253464341D
:100BB800253464345634003425346434253464349C
:100BC8002534643400348312031308108613850116
:100BD8008316031385011A3083120313C000F730FC
:100BE800BF00BF0BF52DC00BF52DFA2D30300A12C2
:100BF8008A15B7260A128A11073083120313C00018
:100C08007C30BF00BF0B062EC00B062E0000303014
:100C18000A128A15B7260A128A1141308312031361
:100C2800BF00BF0B152E182E30300A128A15B726B2
:100C38000A128A113C300A128A15B7260A128A113A
:100C48000C300A128A15B7260A128A1110300A12B5
:100C58008A15B7260A128A1101300A128A15B72690
:100C68000A128A1106300A128A15B7260A128A1140
:100C7800080083160313CD01CE016E2E83160313CD
:100C88004D08831203133F07C2004008C100031830
:100C9800C10A83160313CD1F542E83120313C103F5
:100CA800831203134108C3004308FF00420884006D
:100CB8000A128A118A250A128A110A128A15D1265D
:100CC8000A128A11013083160313CD070318CE0ABE
:100CD8000030CE074D08831203133F07C2004008B7
:100CE800C1000318C10A83160313CD1F7E2E831279
:100CF8000313C103831203134108C3004308FF0011
:100D0800420884000A128A118A250A128A11003AB6
:100D1800031D8F2E902E422E080083120313C2014A
:100D2800C3013C083D0403199A2E9B2ED22EC10103
:100D3800C10AA92E01300310BC0DBD0DFF3E031DD5
:100D48009F2E0130C0004008C107BD1FAC2EAD2E3C
:100D58009E2E01300310C20DC30DFF3E031DAE2EA3
:100D68003D083F02031DBA2E3C083E02031CBD2E5F
:100D7800BE2EC52E3C08BE023D08031CBF03BF02A1
:100D8800421401300310BD0CBC0CFF3E031DC62EDF
:100D98000130C102031DD12ED22EAD2E4308BD0055
:100DA8004208BC000800F501F60170087104031937
:100DB800DE2EDF2E162FF701F70AED2E0130031075
:100DC800F00DF10DFF3E031DE32E0130F400740811
:100DD800F707F11FF02EF12EE22E01300310F50D6A
:100DE800F60DFF3E031DF22E71087302031DFE2E41
:100DF80070087202031C012F022F092F7008F202DB
:100E08007108031CF303F302751401300310F10C8D
:100E1800F00CFF3E031D0A2F0130F702031D152FAA
:100E2800162FF12E7608F1007508F00008008316D9
:100E380003134D084E040319222F232F522FD201DA
:100E4800D20A312F01300310CD0DCE0DFF3E031D08
:100E5800272F0130D1005108D207CE1F342F352F4C
:100E6800262F4E085002031D3B2F4D084F02031C2E
:100E78003E2F3F2F452F4D08CF024E08031CD003AD
:100E8800D00201300310CE0CCD0CFF3E031D462FBF
:100E98000130D202031D512F522F352F5008CE009A
:100EA8004F08CD00080083160313D7003330CD0058
:100EB8000030CE005708D500D60155088312031319
:100EC800BC0083160313560883120313BD00643055
:100ED800BE000030BF000A128A1587270A128A113D
:100EE800831203133D0883160313D00083120313E0
:100EF8003C0883160313CF000A128A1119250A1217
:100F08008A118312031343088400831603134D08C0
:100F180083138000840A4E0880000800780879044A
:100F28000319972F982FC72FFD01FD0AA62F01300F
:100F38000310F80DF90DFF3E031D9C2F0130FC0036
:100F48007C08FD07F91FA92FAA2F9B2F79087B0280
:100F5800031DB02F78087A02031CB32FB42FBA2FC1
:100F68007808FA027908031CFB03FB02013003101E
:100F7800F90CF80CFF3E031DBB2F0130FD02031DC9
:100F8800C62FC72FAA2F7B08F9007A08F800080097
:100F980083120313C200EE2F3F080F39FF3E80383B
:100FA8000A128A15B7260A128A11FE2F3F080F392E
:100FB800FF3EC0380A128A15B7260A128A11FE2F78
:100FC8003F080F39FF3E80380A128A15B7260A12E1
:100FD8008A11FE2F4208C000C1014108003A0319D6
:100FE800F62FE42F4008013A0319D02F033A0319CA
:060FF800DA2FE42F0800CF
:101D0C000D30831203139900080083120313BC00D7
:101D1C003C08930008008B170B17831603130C1445
:101D2C00080083160313141C9C2E9D2E972E08005E
:101D3C00831603130F088F3960388F000F140800B7
:101D4C0064008001840A0406031900340406A72EDB
:101D5C000A128A1597260A128A158312031313087E
:101D6C00080083120313BE0086133E0885000A1276
:101D7C008A15F1260A128A1508008312031390168D
:101D8C00101690111015901010140B308F00DC30C1
:101D9C008E000C10080083120313BE0086173E0839
:101DAC0085000A128A15F1260A128A15831203136A
:101DBC008613080083160317880189018316031301
:101DCC008601880189018312031385017030860016
:101DDC00870188010800831203130814073083124B
:101DEC000313BD007C30BC00BC0BFA2EBD0BFA2ECD
:101DFC00000083120313081008000A128A15D62754
:101E0C000A128A150A128A113E230A128A150A121C
:101E1C008A112A200A128A15082F0A128A111228EE
:101E2C000C1C192F1A2F262F0A128A110A240A1297
:101E3C008A150B30831203138F00DC308E000C10CC
:101E4C003B08FF003A088A0039088400380E8300EA
:101E5C00FE0E7E0E09000A128A11E7250A128A1557
:101E6C0083120313BF01BF0A01300A128A11CC2757
:101E7C000A128A151B3083120313BF008030C00076
:101E8C000A128A113D260A128A15080083160313BA
:101E9C009A01193099008312031398171816831698
:101EAC00031318121813981618158312031318130A
:101EBC008316031787118710831203138C120C12CD
:101ECC00080083120313BF008316031387128312B7
:101EDC0003133F1D722F732F7A2F3E0883160313A3
:101EEC00940087158516802F3C083E048316031337
:101EFC00940087110716831203133F083D049400C6
:101F0C00080083120313C001C1013C1C8E2F8F2FBC
:101F1C00952F3E08C0070318C10A3F08C1070130BE
:101F2C000310BE0DBF0DFF3E031D962F0130031095
:101F3C00BD0CBC0CFF3E031D9D2F3C083D04031D36
:101F4C00A82FA92F8B2F4108BD004008BC0008000A
:101F5C00C52F7108FF00700884000A128A118A25A7
:101F6C000A128A15990083160313981CBE2FBF2FD3
:101F7C00B92F0130F0070318F10A0030F10771088E
:101F8C0083120313FF00700884000A128A118A2539
:101F9C000A128A15003A031DD42FD52FAF2F080033
:101FAC000A128A15E0260A128A150A128A159E262A
:101FBC000A128A150A128A1531270A128A150A1270
:101FCC008A15C3260A128A150A128A1591260A1234
:101FDC008A1583120313BC01BD01BE0120300A1205
:101FEC008A1567270A128A150A128A154C270A12B3
:041FFC008A1508003A
:04400E00D420FF3F7C
:00000001FF
