:060000000A128A110C280F
:10000800FE00030EF2000A08F3000A128A114A28B9
:100018000A128A110F28F801F90183010A128A11BC
:100028008F28F4007403031D1A281B28252883161B
:1000380003139F131F129F123F30831203139F0550
:100048001F1402307406031D2A282B28372883160C
:1000580003139F131F129F12831203131F083F39A4
:1000680040389F001F1403307406031D3C283D28A8
:100078004928831603139F131F129F128312031319
:100088001F083F3980389F001F140800831203138C
:100098008C1D4F28502861280A128A11E5200A125F
:1000A8008A11F1007108F80079080A128A110421EE
:1000B8000A128A11831203138C110C1F64286528F5
:1000C8006A281E08F1007108F9000C1373088A00E9
:1000D800720E8300FE0E7E0E09000A128A11D620C7
:1000E8000A128A110A128A11EE200A128A110A12B9
:1000F8008A11F6200A128A110A128A11C1200A12DC
:100108008A11F401F501F60124300A128A11A92096
:100118000A128A1108000A128A1171200A128A1119
:10012800831203139F149F189A289B2897280F302F
:1001380083120313A000A00B9F28A2288312031385
:100148009F1497280A128A110C28F70083160313A4
:100158008712771DB028B128B6287608940087152D
:100168008516BA287408760494008711071677084C
:100178007504831203139400080002300A128A11CE
:1001880015200A128A11831203131F08C339343841
:100198009F001030F500F50BCF28000083120313E1
:1001A8000C13080083160317880189018916831622
:1001B80003138601861688018312031386018801BA
:1001C80008000A128A11FD200A128A1183120313E9
:1001D80013080800831603130F088F3960388F003F
:1001E8000F1408008B170B17831603130C178C15A5
:1001F800080083160313141C02290329FD2808008C
:0C020800F000700883120313930008003C
:04400E00D420FF3F7C
:00000001FF
