:060000000A128A110C280F
:10000800FE00030EF2000A08F3000A128A1178288B
:100018000A128A110F28F701F801F90183010A125F
:100028008A114B28F4007403031D1B281C2826285A
:10003800831603139F131F129F123F30831203135B
:100048009F051F1402307406031D2B282C283828FE
:10005800831603139F131F129F12831203131F0883
:100068003F3940389F001F1403307406031D3D2894
:100078003E284A28831603139F131F129F128312C8
:1000880003131F083F3980389F001F1408000A1205
:100098008A11E4200A128A11831203139F1483120F
:1000A80003139F185828592863280F308312031305
:1000B800A100A10B5D286028831203139F14770801
:1000C8000A128A1126210A128A1183120313A10027
:1000D8002108F80078080A128A119F200A128A114A
:1000E80053280A128A110C28831203138C1D7D28A9
:1000F8007E288F280A128A112F210A128A11F100EC
:100108007108F90078080A128A114E210A128A1118
:10011800831203138C110C1F9228932898281E0809
:10012800F1007108F7000C1373088A00720E83003F
:10013800FE0E7E0E0900F400183074020318A5287C
:10014800A628AC2883120313081188118817C3281E
:1001580018307402031CB128B228BE281C3074025F
:100168000318B728B828BE28831203130811881566
:100178008813C328831203130815881188130800ED
:1001880083120313A0008316031387128312031329
:10019800201DCF28D028D72876088316031394006B
:1001A80087158516DD2874087604831603139400D2
:1001B800871107168312031320087504940008009A
:1001C8000A128A1117210A128A110A128A11382171
:1001D8000A128A110A128A1140210A128A110A1275
:1001E8008A1102210A128A11F401F501F60124305C
:1001F8000A128A11C4200A128A11080002300A124F
:100208008A1116200A128A11831203131F08C33990
:1002180034389F001030F500F50B102900008312C8
:1002280003130C1308008316031788018901891624
:100238008316031386018616880183120313860129
:1002480088010800F6007608F4007407F5007508C0
:10025800F600760808000A128A1147210A128A1144
:100268008312031313080800831603130F088F392A
:1002780060388F000F1408008B170B1783160313B1
:100288000C178C15080083160313141C4C294D29D0
:1002980047290800F0007008831203139300080030
:04400E00D420FF3F7C
:00000001FF
