:060000000A128A110C280F
:10000800FE00030EF1000A08F2000A128A11C9283C
:100018000A128A110F28F801F901FA0183010A125C
:100028008A1116280A128A111E210A128A118E288C
:1000380083120313860109308700FA01F8019E280C
:100048007A03031D28282928372883120313061446
:100058007A08FF3E0A128A11FB200A128A118312BB
:10006800031387009E2802307A06031D3C283D288A
:100078004C2883120313061086147A08FF3E0A12CE
:100088008A11FB200A128A118312031387009E2803
:1000980003307A06031D512852286128831203135E
:1000A800861006157A08FF3E0A128A11FB200A12EA
:1000B8008A118312031387009E2804307A06031DD1
:1000C800662867287B2883120313061486140615EE
:1000D8007A08FF3E0A128A11FB200A128A1183123B
:1000E8000313870001308500013088009E28053001
:1000F8007A02031C8028812888280530F6007608B3
:10010800FA00F801F80A9E289E28CC3083120313BF
:1001180086009E287908F600F7017708003A031947
:10012800962889287608003A03191C28013A0319E9
:100138002428892883120313851FA328A428A82804
:10014800861506308700F801881FAB28AC28B02830
:1001580006165B308700F801861EB328B4288E285F
:100168008619B728B828BC28061EBB28BC288E28A4
:1001780085018601093087008801FA01F901F90A29
:10018800F8018E280A128A110C28831203130C1CFA
:10019800CE28CF28D4280130F0007008FA070C10B8
:1001A8000B1CD728D828F428861EDB28DC28DE2854
:1001B800F901F90A78080319E228E328F328061F49
:1001C800E628E728EB280508F00070078500861F59
:1001D800EE28EF28F3280808F000700788000B10B5
:1001E80072088A00710E8300FE0E7E0E0900F5006B
:1001F80007294F301D295B301D2906301D293F3046
:100208001D2955301D297508F300F4017408003ABA
:1002180003190F2905297308003A0319FD28013A23
:100228000319FF28033A03190129013A031903297D
:10023800052908000A128A1138210A128A110A129D
:100248008A1158210A128A110A128A114A210A129D
:100258008A110A128A1167210A128A110A128A114E
:1002680060210A128A110800831603178801890180
:10027800831603138501E030860087018801831205
:10028800031385018601870188010800831203137F
:100298009016101690111015901010140B308F0036
:1002A800DC308E000C100800831603130F088F39FA
:1002B80050388F000F14080083160313961616176C
:1002C80096170B1008008B170B17831603130C14C3
:0402D8008B1508007A
:04400E00D420FF3F7C
:00000001FF
